:020000040000FA
:04000000B3EF37F033
:106EF4000F000500016E01C083FF12000F0E956E96
:106F0400000E0E6E000E0D6EC5EC3BF0300F146ECD
:106F1400000E956E14501200060EC16E010E936E93
:106F2400000E956E000E966EF80E936E000E926E25
:106F3400000E946E828293EC38F01200015003022A
:106F4400F3CF05F0F4CF06F001500402F350062607
:106F540002500302F350062605C001F006C002F0F9
:106F64001200F40EF66E6E0EF76E000EF86E00EE62
:106F74003CF010EE04F00900F5CFEEFFE550E150CF
:106F8400FAE100EE2FF00D0EEE6AE806FDE1000EC8
:106F9400F86E0001BEEF3CF00D6E84820D507CEC67
:106FA40037F08484030E016E000E026E000E036E31
:106FB400000E046ECDEC38F08492030E016E000EC8
:106FC400026E000E036E000E046ECDEC38F0848267
:106FD40012000D6E84820D507CEC37F08494030E05
:106FE400016E000E026E000E036E000E046ECDECF8
:106FF40038F08492030E016E000E026E000E036ED2
:10700400000E046ECDEC38F084821200000E126E75
:107014001BEF38F012500E24106E000E0F20116E6C
:1070240010C0F6FF11C0F7FF0800F550CEEC37F0A2
:10703400122A12500E24106E000E0F20116E10C072
:10704400F6FF11C0F7FF0800F5500009D8A42DEF92
:1070540038F02FEF38F00CEF38F01200010EEBECA3
:1070640037F0000E3B6E040E3B643BEF38F03DEF0F
:1070740038F03FEF38F05EEF38F0800EEBEC37F08D
:10708400CF0E0E6E7E0E0F6E08EC38F0C00EEBECD9
:1070940037F0870E0E6E7E0E0F6E08EC38F0000E81
:1070A4000F6EC80E0E6E000E116E000E106EDEEC2A
:1070B40039F03B2A35EF38F01200000E936E000EC3
:1070C400816E010E3B6E76EF38F03BC00FF0010E7F
:1070D400106E0F2A70EF38F0D89010360F2E6EEF26
:1070E40038F0105081123B2A3B500F6E106A0F503B
:1070F4000D5C0E50800A116E1050800A1158D8B0E1
:1071040086EF38F088EF38F067EF38F0580E016EEC
:10711400020E026E000E036E000E046ECDEC38F00B
:10712400120084928494140E016E000E026E000EFE
:10713400036E000E046ECDEC38F08482380EEBEC56
:1071440037F0050E016E000E026E000E036E000E87
:10715400046ECDEC38F0380EEBEC37F0010E016E16
:10716400000E026E000E036E000E046ECDEC38F0BD
:10717400380EEBEC37F0080EEBEC37F00F0EEBECBF
:1071840037F0010EEBEC37F0380EEBEC37F0800EF5
:10719400EBEC37F01200000E0A6E000E096EF3EFEE
:1071A40038F0000E0B6E280E0B64DBEF38F0DDEFC9
:1071B40038F0DFEF38F0F1EF38F0000E0C6E020E0D
:1071C4000C64E7EF38F0E9EF38F0EBEF38F0EEEF6E
:1071D40038F00C2AE1EF38F00B2AD5EF38F0094AE1
:1071E4000A2A0950056E0A50066E076A086A015099
:1071F400055C025006580350075804500858D8A09C
:1072040006EF39F008EF39F0D3EF38F01200010E31
:10721400EBEC37F0800EEBEC37F0760E0E6E7F0E53
:107224000F6E08EC38F0C00EEBEC37F0C80E0E6EA3
:107234007F0E0F6E08EC38F0000E0F6E320E0E6EDD
:10724400000E116E000E106EDEEC39F0010EEBEC48
:1072540037F0800EEBEC37F0300E0E6E7F0E0F6EB3
:1072640008EC38F0C00EEBEC37F01E0E0E6E7F0EFD
:107274000F6E08EC38F0000E0F6E320E0E6E000E1C
:10728400116E010E106EDEEC39F012001250131064
:1072940014101510D8B451EF39F053EF39F083EFCF
:1072A40039F0010E166E5DEF39F0D89012361336B0
:1072B40014361536162A15AE62EF39F064EF39F03C
:1072C40057EF39F012500E5C13500F5814501058E9
:1072D40015501158D8A071EF39F073EF39F07BEFE6
:1072E40039F012500E5E13500F5A1450105A1550A4
:1072F400115AD8901532143213321232162E64EF0A
:1073040039F00EC00EF00FC00FF010C010F011C015
:1073140011F01200000E096E000E0A6E000E0B6EC4
:10732400000E0C6E0550061007100810D8B49DEF1F
:1073340039F09FEF39F0D5EF39F0010E0D6EA9EF5A
:1073440039F0D89005360636073608360D2A08AEC9
:10735400AEEF39F0B0EF39F0A3EF39F0D890093639
:107364000A360B360C360550015C0650025807509D
:10737400035808500458D8A0C2EF39F0C4EF39F0CC
:10738400CDEF39F00550015E0650025A0750035AFA
:107394000850045A0980D890083207320632053260
:1073A4000D2EB0EF39F009C001F00AC002F00BC095
:1073B40003F00CC004F01200000E3B6E090E3B6497
:1073C400E6EF39F0E8EF39F0EAEF39F0FBEF39F0A6
:1073D4000EC001F00FC002F0000E02BEFF0E036EDD
:1073E400046ECDEC38F0180EEBEC37F03B2AE0EFEE
:1073F40039F0000E3B6E130E3B6403EF3AF005EFD9
:107404003AF007EF3AF018EF3AF00EC001F00FC06F
:1074140002F0000E02BEFF0E036E046ECDEC38F0D7
:107424001C0EEBEC37F03B2AFDEF39F01004111081
:10743400D8A41FEF3AF021EF3AF023EF3AF04AEFE5
:107444003AF0000E3B6E090E3B642BEF3AF02DEF41
:107454003AF02FEF3AF040EF3AF00EC001F00FC0CF
:1074640002F0000E02BEFF0E036E046ECDEC38F087
:10747400180EEBEC37F03B2A25EF3AF0E80E016EDC
:10748400030E026E000E036E000E046ECDEC38F097
:1074940012002B6E000E826E8282310E2B18D8A43D
:1074A40056EF3AF058EF3AF05EEF3AF0EA0E276EF4
:1074B4007F0E286EE5EC3AF0320E2B18D8A465EF57
:1074C4003AF067EF3AF06DEF3AF0F30E276E7F0E65
:1074D400286EE5EC3AF0330E2B18D8A474EF3AF08A
:1074E40076EF3AF07CEF3AF0BC0E276E7F0E286EF2
:1074F400E5EC3AF0334A342A8292AF0E0E6E7F0ED8
:107504000F6E08EC38F0C00EEBEC37F00B0E0E6E7D
:107514007F0E0F6E08EC38F0000E0F6EC80E0E6E64
:10752400000E116E000E106EDEEC39F08282010E38
:10753400EBEC37F0420E0E6E7F0E0F6E08EC38F057
:10754400C00EEBEC37F0E30E0E6E7E0E0F6E08EC01
:1075540038F0000E0F6EC80E0E6E000E116E000E87
:10756400106EDEEC39F080EC37F03B6E310E3B18D8
:10757400D8B4BFEF3AF0C1EF3AF0D4EF3AF0010ECD
:10758400EBEC37F0860E0E6E7F0E0F6E08EC38F0C3
:10759400880E016E130E026E000E036E000E046E52
:1075A400CDEC38F0010EEBEC37F0310E3B18D8A4DB
:1075B400DEEF3AF0E0EF3AF09CEF3AF033C029F016
:1075C40034C02AF01200010EEBEC37F0800EEBEC25
:1075D40037F0DF0E0E6E7F0E0F6E08EC38F0C00E23
:1075E400EBEC37F0FB0E0E6E7F0E0F6E08EC38F0EE
:1075F40027C00EF028C00FF008EC38F0E80E016E3A
:10760400030E026E000E036E000E046ECDEC38F015
:10761400010EEBEC37F0660E0E6E7F0E0F6E08EC6B
:1076240038F0000E186E3C0E176E000E1A6E2D0EFA
:10763400196EE4EC3DF0010EEBEC37F0950E0E6E96
:107644007F0E0F6E08EC38F0C00EEBEC37F0FB0E3B
:107654000E6E7F0E0F6E08EC38F027C00EF028C0B7
:107664000FF008EC38F0720E0E6E7F0E0F6E08EC01
:1076740038F0320E016E000E026E000E036E000E24
:10768400046ECDEC38F0000E186E2D0E176E000E41
:107694001A6E1E0E196EE4EC3DF0010EEBEC37F0A1
:1076A400800EEBEC37F0A20E0E6E7F0E0F6E08EC20
:1076B40038F0C00EEBEC37F0FB0E0E6E7F0E0F6E43
:1076C40008EC38F027C00EF028C00FF008EC38F0B2
:1076D400720E0E6E7F0E0F6E08EC38F0320E016ED5
:1076E400000E026E000E036E000E046ECDEC38F038
:1076F400000E186E1E0E176E000E1A6E0F0E196E07
:10770400E4EC3DF0010EEBEC37F0800EEBEC37F0DF
:10771400D40E0E6E7F0E0F6E08EC38F0C00EEBEC3C
:1077240037F0FB0E0E6E7F0E0F6E08EC38F027C09C
:107734000EF028C00FF008EC38F0720E0E6E7F0EBB
:107744000F6E08EC38F08284320E016E000E026E69
:10775400000E036E000E046ECDEC38F0000E186EB1
:107764000F0E176E000E1A6E000E196EE4EC3DF04B
:10777400010EEBEC37F0800EEBEC37F08294010E47
:10778400EBEC37F01200000E106E000E0F6E000EC0
:10779400126E81CF11F08AEF3CF0000E136E830E4F
:1077A4001324F66EF76A7E0EF7220800F550FF0ADE
:1077B400811283B6E0EF3BF0E2EF3BF0FEEF3BF0EB
:1077C4000F0E016E000E026E000E036E000E046EAC
:1077D400CDEC38F083B6F1EF3BF0F3EF3BF0FEEF86
:1077E4003BF083A6F8EF3BF0FAEF3BF0F3EF3BF00E
:1077F4001328126E7CEF3CF083B403EF3CF005EFEA
:107804003CF022EF3CF00F0E016E000E026E000EF3
:10781400036E000E046ECDEC38F083B414EF3CF02C
:1078240016EF3CF022EF3CF083A41BEF3CF01DEF7D
:107834003CF016EF3CF01350040F126E7CEF3CF05A
:1078440083B227EF3CF029EF3CF046EF3CF00F0EFB
:10785400016E000E026E000E036E000E046ECDEC7F
:1078640038F083B238EF3CF03AEF3CF046EF3CF0AE
:1078740083A23FEF3CF041EF3CF03AEF3CF0135071
:10788400070F126E7CEF3CF083B04BEF3CF04DEFF2
:107894003CF06AEF3CF00F0E016E000E026E000E1B
:1078A400036E000E046ECDEC38F083B05CEF3CF058
:1078B4005EEF3CF06AEF3CF083A063EF3CF065EFD1
:1078C4003CF05EEF3CF013500A0F126E7CEF3CF07C
:1078D400830E1324F66EF76A7E0EF7220800F55025
:1078E4008116132A020E13647AEF3CF07CEF3CF00D
:1078F400D1EF3BF0050E016E000E026E000E036E1A
:10790400000E046ECDEC38F0050E0F26000E10228A
:107914000D500F5C0E501058D8A093EF3CF095EF2B
:107924003CF09EEF3CF00D500E10D8A49CEF3CF0C0
:107934009EEF3CF0A6EF3CF01250D8B4A4EF3CF01C
:10794400A6EF3CF0CFEF3BF01250D8A4ACEF3CF0E4
:10795400AEEF3CF0AFEF3CF012680B0E1218D8A457
:10796400B6EF3CF0B8EF3CF0BAEF3CF0000E126E0C
:1079740011C081FF125012008EEC37F009EC39F07F
:107984008282010EEBEC37F02DBED1EF3CF02D508E
:1079940008E12C04D8A0D1EF3CF0D3EF3CF036EF53
:1079A4003DF0A10E0E6E7E0E0F6E08EC38F0C00E88
:1079B400EBEC37F0F70E0E6E7E0E0F6E08EC38F01F
:1079C400000E0F6EC80E0E6E000E116E000E106EBD
:1079D400DEEC39F080EC37F02E6E310E2E18D8B470
:1079E400F6EF3CF0F8EF3CF017EF3DF0320E2E18B6
:1079F400D8B4FFEF3CF001EF3DF017EF3DF0010E7E
:107A0400EBEC37F0860E0E6E7F0E0F6E08EC38F03E
:107A1400880E016E130E026E000E036E000E046ECD
:107A2400CDEC38F0010EEBEC37F0320E2E18D8A462
:107A34001EEF3DF020EF3DF022EF3DF0B4EF3DF0BE
:107A4400310E2E18D8B429EF3DF02BEF3DF036EF70
:107A54003DF0320E2E18D8A432EF3DF034EF3DF055
:107A6400D3EF3CF036EF3DF030EC38F080EC37F0FB
:107A74002E6E310E2E18D8B442EF3DF044EF3DF097
:107A84006CEF3DF0320E2E18D8B44BEF3DF04DEFB5
:107A94003DF06CEF3DF0330E2E18D8B454EF3DF0AA
:107AA40056EF3DF06CEF3DF0010EEBEC37F0860E37
:107AB4000E6E7F0E0F6E08EC38F0880E016E130EFA
:107AC400026E000E036E000E046ECDEC38F0010E53
:107AD400EBEC37F0310E2E18D8B473EF3DF075EFA0
:107AE4003DF087EF3DF0320E2E18D8B47CEF3DF018
:107AF4007EEF3DF087EF3DF0330E2E18D8A485EFCE
:107B04003DF087EF3DF036EF3DF02C502D10D8A41A
:107B14008EEF3DF090EF3DF094EF3DF0000E936E4C
:107B2400000E816E2E504BEC3AF029C02CF02AC086
:107B34002DF02CC00DF02DC00EF05FEC38F02DBEF2
:107B4400ADEF3DF02D5009E1070E2C5CD8A0ADEF50
:107B54003DF0AFEF3DF0B1EF3DF0B4EF3DF0828288
:107B6400C2EF3CF0010EEBEC37F0800EEBEC37F09B
:107B7400BA0E0E6E7E0E0F6E08EC38F0C00EEBECF3
:107B840037F0540E0E6E7F0E0F6E08EC38F0000EB8
:107B94000F6E780E0E6E000E116E000E106EDEEC7F
:107BA40039F0E80E016E030E026E000E036E000E35
:107BB400046ECDEC38F0010EEBEC37F0E0EF3DF065
:107BC40000EF00F0000E836E17C001F018C002F041
:107BD400000E046E3C0E036EA0EC37F001C02FF0D3
:107BE40002C030F0000E30BEFF0E316E326E020E57
:107BF4003B6E050E3B6401EF3EF003EF3EF005EFF4
:107C04003EF00AEF3FF0020E3B18D8A40CEF3EF012
:107C14000EEF3EF043EF3EF03C0E056E000E066E96
:107C2400000E076E000E086E2FC001F030C002F087
:107C340031C003F032C004F08CEC39F001C01FF005
:107C440002C020F003C021F004C022F01FC001F0E4
:107C540020C002F021C003F022C004F00A0E056E19
:107C6400000E066E000E076E000E086E8CEC39F0E6
:107C7400790E0124F66E7E0E0220F76E0800F5CF11
:107C840083FF030E3B18D8A44AEF3EF04CEF3EF0BE
:107C940079EF3EF03C0E056E000E066E000E076E88
:107CA400000E086E2FC001F030C002F031C003F0A6
:107CB40032C004F08CEC39F001C00EF002C00FF0B9
:107CC40003C010F004C011F00A0E126E000E136E01
:107CD400000E146E000E156E48EC39F0790E0E2469
:107CE400F66E7E0E0F20F76E0800F5CF83FF040EAC
:107CF4003B18D8A480EF3EF082EF3EF0AFEF3EF0A9
:107D04003C0E126E000E136E000E146E000E156EF5
:107D14002FC00EF030C00FF031C010F032C011F09F
:107D240048EC39F00EC001F00FC002F010C003F0AF
:107D340011C004F00A0E056E000E066E000E076EEA
:107D4400000E086E8CEC39F0790E0124F66E7E0E6E
:107D54000220F76E0800F5CF83FF050E3B18D8A468
:107D6400B6EF3EF0B8EF3EF0EDEF3EF03C0E126E93
:107D7400000E136E000E146E000E156E2FC00EF062
:107D840030C00FF031C010F032C011F048EC39F0BF
:107D94000EC023F00FC024F010C025F011C026F04F
:107DA40023C00EF024C00FF025C010F026C011F03F
:107DB4000A0E126E000E136E000E146E000E156E77
:107DC40048EC39F0790E0E24F66E7E0E0F20F76E15
:107DD4000800F5CF83FF000E806E3BC01BF0010E40
:107DE4001C6E1B2AF8EF3EF0D8901C361B2EF6EFC3
:107DF4003EF01C508012010E016E000E026E000E49
:107E0400036E000E046ECDEC38F03B2AFBEF3DF020
:107E14002F06000E305A315A325A19C001F01AC0D6
:107E240002F0000E046E3C0E036EA0EC37F001C0AD
:107E34001BF002C01CF0000E1CBEFF0E1D6E1E6E59
:107E44002F501B180DE130501C180AE131501D1839
:107E540007E132501E18D8A432EF3FF034EF3FF060
:107E6400F9EF3DF0000E806E1200003F065B4F6696
:107E74006D7D077F6F3F065B4F666D7D077F6F01EA
:107E8400020400312D436172726F20322D4D6F74E4
:107E94006F20332D43616D696E68616F00312D452C
:107EA40073636F6C686572206F7574726F2076658A
:107EB4006963756C6F00457870656469656E746597
:107EC40020656E6365727261646F004573636F6CE5
:107ED4006861207365752076656963756C6F0072DF
:107EE400657469726172207365752076656963755E
:107EF4006C6F00322D5361697220646F206C61765F
:107F040061206A61746F00726574697265207365BB
:107F1400752076656963756C6F0020202020202011
:107F240020602D4F2D2D2D3D4F2D2700202020206A
:107F34002020205F2F7C27277C27215F2C002050C6
:107F440072657373696F6E652031207061726100B0
:107F540054656E686120756D20626F6D206469617F
:107F64002100205072652D4C61766167656D2E2E5F
:107F74002E004C6176612052617069646F20486FF5
:107F840074005465636C6120696E76616C69646128
:107F9400002020456E7361626F616E646F00202063
:107FA400456E78616775616E646F00202020506FA4
:107FB40072206661766F7200206F2043616D696E76
:107FC40068616F002020202020576865656C73006D
:107FD400202020536563616E646F002020204C6173
:107FE40076616E646F00206F20436172726F0020AF
:0C7FF40061204D6F746F00202020000001
:020000040020DA
:08000000FFFFFFFFFFFFFFFF00
:020000040030CA
:0E000000FF021F00FF8381FF0FC00FE00F40C3
:00000001FF
